{"contracts/test.sol":{"B":{"abi":[{"inputs":[],"name":"test","outputs":[{"internalType":"int256","name":"","type":"int256"}],"stateMutability":"nonpayable","type":"function"}],"devdoc":{"kind":"dev","methods":{},"version":1},"evm":{"bytecode":{"linkReferences":{},"object":"608060405234801561001057600080fd5b5060e88061001f6000396000f3fe6080604052348015600f57600080fd5b506004361060285760003560e01c8063f8a8fd6d14602d575b600080fd5b60336045565b60405190815260200160405180910390f35b60006001600080828254605791906064565b9091555050600054919050565b808201828112600083128015821682158216171560aa577f4e487b7100000000000000000000000000000000000000000000000000000000600052601160045260246000fd5b50509291505056fea264697066735822122078b4a179f1880a84c36aeee0704227a80caae15403c85f8109832fa8c48e094b64736f6c63430008110033","opcodes":"PUSH1 0x80 PUSH1 0x40 MSTORE CALLVALUE DUP1 ISZERO PUSH2 0x10 JUMPI PUSH1 0x0 DUP1 REVERT JUMPDEST POP PUSH1 0xE8 DUP1 PUSH2 0x1F PUSH1 0x0 CODECOPY PUSH1 0x0 RETURN INVALID PUSH1 0x80 PUSH1 0x40 MSTORE CALLVALUE DUP1 ISZERO PUSH1 0xF JUMPI PUSH1 0x0 DUP1 REVERT JUMPDEST POP PUSH1 0x4 CALLDATASIZE LT PUSH1 0x28 JUMPI PUSH1 0x0 CALLDATALOAD PUSH1 0xE0 SHR DUP1 PUSH4 0xF8A8FD6D EQ PUSH1 0x2D JUMPI JUMPDEST PUSH1 0x0 DUP1 REVERT JUMPDEST PUSH1 0x33 PUSH1 0x45 JUMP JUMPDEST PUSH1 0x40 MLOAD SWAP1 DUP2 MSTORE PUSH1 0x20 ADD PUSH1 0x40 MLOAD DUP1 SWAP2 SUB SWAP1 RETURN JUMPDEST PUSH1 0x0 PUSH1 0x1 PUSH1 0x0 DUP1 DUP3 DUP3 SLOAD PUSH1 0x57 SWAP2 SWAP1 PUSH1 0x64 JUMP JUMPDEST SWAP1 SWAP2 SSTORE POP POP PUSH1 0x0 SLOAD SWAP2 SWAP1 POP JUMP JUMPDEST DUP1 DUP3 ADD DUP3 DUP2 SLT PUSH1 0x0 DUP4 SLT DUP1 ISZERO DUP3 AND DUP3 ISZERO DUP3 AND OR ISZERO PUSH1 0xAA JUMPI PUSH32 0x4E487B7100000000000000000000000000000000000000000000000000000000 PUSH1 0x0 MSTORE PUSH1 0x11 PUSH1 0x4 MSTORE PUSH1 0x24 PUSH1 0x0 REVERT JUMPDEST POP POP SWAP3 SWAP2 POP POP JUMP INVALID LOG2 PUSH5 0x6970667358 0x22 SLT KECCAK256 PUSH25 0xB4A179F1880A84C36AEEE0704227A80CAAE15403C85F810983 0x2F 0xA8 0xC4 DUP15 MULMOD 0x4B PUSH5 0x736F6C6343 STOP ADDMOD GT STOP CALLER "},"gasEstimates":{"creation":{"codeDepositCost":"46400","executionCost":"99","totalCost":"46499"},"external":{"test()":"26621"}},"methodIdentifiers":{"test()":"f8a8fd6d"}},"storageLayout":{"storage":[{"astId":3,"contract":"contracts/test.sol:B","label":"counter","offset":0,"slot":"0","type":"t_int256"}],"types":{"t_int256":{"encoding":"inplace","label":"int256","numberOfBytes":"32"}}},"userdoc":{"kind":"user","methods":{},"version":1}}}}