{
  "_format": "hh-sol-artifact-1",
  "contractName": "B",
  "sourceName": "contracts/test.sol",
  "abi": [
    {
      "inputs": [],
      "name": "test",
      "outputs": [
        {
          "internalType": "int256",
          "name": "",
          "type": "int256"
        }
      ],
      "stateMutability": "nonpayable",
      "type": "function"
    }
  ],
  "bytecode": "0x608060405234801561001057600080fd5b5060e88061001f6000396000f3fe6080604052348015600f57600080fd5b506004361060285760003560e01c8063f8a8fd6d14602d575b600080fd5b60336045565b60405190815260200160405180910390f35b60006001600080828254605791906064565b9091555050600054919050565b808201828112600083128015821682158216171560aa577f4e487b7100000000000000000000000000000000000000000000000000000000600052601160045260246000fd5b50509291505056fea2646970667358221220f345eab649a8313cea686a172d446e87e72cba5662af1892fd6657f1c3f59f1064736f6c63430008110033",
  "linkReferences": {},
  "deployedLinkReferences": {}
}